{
  "contractName": "MoneyBackInsurance",
  "abi": [
    {
      "inputs": [],
      "stateMutability": "nonpayable",
      "type": "constructor"
    },
    {
      "anonymous": false,
      "inputs": [
        {
          "indexed": true,
          "internalType": "uint256",
          "name": "policyId",
          "type": "uint256"
        },
        {
          "indexed": false,
          "internalType": "bool",
          "name": "approved",
          "type": "bool"
        },
        {
          "indexed": false,
          "internalType": "uint256",
          "name": "amount",
          "type": "uint256"
        }
      ],
      "name": "ClaimProcessed",
      "type": "event"
    },
    {
      "anonymous": false,
      "inputs": [
        {
          "indexed": true,
          "internalType": "uint256",
          "name": "policyId",
          "type": "uint256"
        },
        {
          "indexed": true,
          "internalType": "address",
          "name": "policyholder",
          "type": "address"
        }
      ],
      "name": "ClaimSubmitted",
      "type": "event"
    },
    {
      "anonymous": false,
      "inputs": [
        {
          "indexed": true,
          "internalType": "address",
          "name": "previousOwner",
          "type": "address"
        },
        {
          "indexed": true,
          "internalType": "address",
          "name": "newOwner",
          "type": "address"
        }
      ],
      "name": "OwnershipTransferred",
      "type": "event"
    },
    {
      "anonymous": false,
      "inputs": [
        {
          "indexed": false,
          "internalType": "address",
          "name": "account",
          "type": "address"
        }
      ],
      "name": "Paused",
      "type": "event"
    },
    {
      "anonymous": false,
      "inputs": [
        {
          "indexed": true,
          "internalType": "uint256",
          "name": "policyId",
          "type": "uint256"
        },
        {
          "indexed": false,
          "internalType": "uint256",
          "name": "year",
          "type": "uint256"
        },
        {
          "indexed": false,
          "internalType": "uint256",
          "name": "amount",
          "type": "uint256"
        }
      ],
      "name": "PayoutProcessed",
      "type": "event"
    },
    {
      "anonymous": false,
      "inputs": [
        {
          "indexed": true,
          "internalType": "uint256",
          "name": "policyId",
          "type": "uint256"
        },
        {
          "indexed": true,
          "internalType": "address",
          "name": "policyholder",
          "type": "address"
        },
        {
          "indexed": false,
          "internalType": "uint256",
          "name": "sumAssured",
          "type": "uint256"
        }
      ],
      "name": "PolicyCreated",
      "type": "event"
    },
    {
      "anonymous": false,
      "inputs": [
        {
          "indexed": true,
          "internalType": "uint256",
          "name": "policyId",
          "type": "uint256"
        },
        {
          "indexed": true,
          "internalType": "address",
          "name": "policyholder",
          "type": "address"
        },
        {
          "indexed": false,
          "internalType": "uint256",
          "name": "amount",
          "type": "uint256"
        }
      ],
      "name": "PremiumPaid",
      "type": "event"
    },
    {
      "anonymous": false,
      "inputs": [
        {
          "indexed": false,
          "internalType": "address",
          "name": "account",
          "type": "address"
        }
      ],
      "name": "Unpaused",
      "type": "event"
    },
    {
      "inputs": [],
      "name": "CLAIM_VERIFICATION_PERIOD",
      "outputs": [
        {
          "internalType": "uint256",
          "name": "",
          "type": "uint256"
        }
      ],
      "stateMutability": "view",
      "type": "function"
    },
    {
      "inputs": [],
      "name": "PAYOUT_10TH_YEAR",
      "outputs": [
        {
          "internalType": "uint256",
          "name": "",
          "type": "uint256"
        }
      ],
      "stateMutability": "view",
      "type": "function"
    },
    {
      "inputs": [],
      "name": "PAYOUT_15TH_YEAR",
      "outputs": [
        {
          "internalType": "uint256",
          "name": "",
          "type": "uint256"
        }
      ],
      "stateMutability": "view",
      "type": "function"
    },
    {
      "inputs": [],
      "name": "PAYOUT_5TH_YEAR",
      "outputs": [
        {
          "internalType": "uint256",
          "name": "",
          "type": "uint256"
        }
      ],
      "stateMutability": "view",
      "type": "function"
    },
    {
      "inputs": [],
      "name": "POLICY_DURATION",
      "outputs": [
        {
          "internalType": "uint256",
          "name": "",
          "type": "uint256"
        }
      ],
      "stateMutability": "view",
      "type": "function"
    },
    {
      "inputs": [],
      "name": "PREMIUM_RATE",
      "outputs": [
        {
          "internalType": "uint256",
          "name": "",
          "type": "uint256"
        }
      ],
      "stateMutability": "view",
      "type": "function"
    },
    {
      "inputs": [],
      "name": "owner",
      "outputs": [
        {
          "internalType": "address",
          "name": "",
          "type": "address"
        }
      ],
      "stateMutability": "view",
      "type": "function"
    },
    {
      "inputs": [],
      "name": "paused",
      "outputs": [
        {
          "internalType": "bool",
          "name": "",
          "type": "bool"
        }
      ],
      "stateMutability": "view",
      "type": "function"
    },
    {
      "inputs": [
        {
          "internalType": "uint256",
          "name": "",
          "type": "uint256"
        }
      ],
      "name": "policies",
      "outputs": [
        {
          "internalType": "address",
          "name": "policyholder",
          "type": "address"
        },
        {
          "internalType": "uint256",
          "name": "sumAssured",
          "type": "uint256"
        },
        {
          "internalType": "uint256",
          "name": "premium",
          "type": "uint256"
        },
        {
          "internalType": "uint256",
          "name": "startDate",
          "type": "uint256"
        },
        {
          "internalType": "uint256",
          "name": "endDate",
          "type": "uint256"
        },
        {
          "internalType": "bool",
          "name": "isActive",
          "type": "bool"
        },
        {
          "internalType": "bool",
          "name": "isClaimed",
          "type": "bool"
        },
        {
          "internalType": "uint256",
          "name": "lastPremiumPaid",
          "type": "uint256"
        },
        {
          "internalType": "bool",
          "name": "payout5thYear",
          "type": "bool"
        },
        {
          "internalType": "bool",
          "name": "payout10thYear",
          "type": "bool"
        },
        {
          "internalType": "bool",
          "name": "payout15thYear",
          "type": "bool"
        },
        {
          "internalType": "bool",
          "name": "maturityPaid",
          "type": "bool"
        }
      ],
      "stateMutability": "view",
      "type": "function"
    },
    {
      "inputs": [],
      "name": "policyCount",
      "outputs": [
        {
          "internalType": "uint256",
          "name": "",
          "type": "uint256"
        }
      ],
      "stateMutability": "view",
      "type": "function"
    },
    {
      "inputs": [],
      "name": "renounceOwnership",
      "outputs": [],
      "stateMutability": "nonpayable",
      "type": "function"
    },
    {
      "inputs": [
        {
          "internalType": "address",
          "name": "newOwner",
          "type": "address"
        }
      ],
      "name": "transferOwnership",
      "outputs": [],
      "stateMutability": "nonpayable",
      "type": "function"
    },
    {
      "stateMutability": "payable",
      "type": "receive"
    },
    {
      "inputs": [
        {
          "internalType": "uint256",
          "name": "_sumAssured",
          "type": "uint256"
        }
      ],
      "name": "createPolicy",
      "outputs": [],
      "stateMutability": "payable",
      "type": "function"
    },
    {
      "inputs": [
        {
          "internalType": "uint256",
          "name": "_policyId",
          "type": "uint256"
        }
      ],
      "name": "payPremium",
      "outputs": [],
      "stateMutability": "payable",
      "type": "function"
    },
    {
      "inputs": [
        {
          "internalType": "uint256",
          "name": "_policyId",
          "type": "uint256"
        }
      ],
      "name": "submitClaim",
      "outputs": [],
      "stateMutability": "nonpayable",
      "type": "function"
    },
    {
      "inputs": [
        {
          "internalType": "uint256",
          "name": "_policyId",
          "type": "uint256"
        },
        {
          "internalType": "bool",
          "name": "_approved",
          "type": "bool"
        }
      ],
      "name": "processClaim",
      "outputs": [],
      "stateMutability": "nonpayable",
      "type": "function"
    },
    {
      "inputs": [
        {
          "internalType": "uint256",
          "name": "_policyId",
          "type": "uint256"
        }
      ],
      "name": "getPolicy",
      "outputs": [
        {
          "internalType": "address",
          "name": "policyholder",
          "type": "address"
        },
        {
          "internalType": "uint256",
          "name": "sumAssured",
          "type": "uint256"
        },
        {
          "internalType": "uint256",
          "name": "premium",
          "type": "uint256"
        },
        {
          "internalType": "uint256",
          "name": "startDate",
          "type": "uint256"
        },
        {
          "internalType": "uint256",
          "name": "endDate",
          "type": "uint256"
        },
        {
          "internalType": "bool",
          "name": "isActive",
          "type": "bool"
        },
        {
          "internalType": "bool",
          "name": "isClaimed",
          "type": "bool"
        },
        {
          "internalType": "uint256",
          "name": "lastPremiumPaid",
          "type": "uint256"
        },
        {
          "internalType": "bool",
          "name": "payout5thYear",
          "type": "bool"
        },
        {
          "internalType": "bool",
          "name": "payout10thYear",
          "type": "bool"
        },
        {
          "internalType": "bool",
          "name": "payout15thYear",
          "type": "bool"
        },
        {
          "internalType": "bool",
          "name": "maturityPaid",
          "type": "bool"
        }
      ],
      "stateMutability": "view",
      "type": "function"
    },
    {
      "inputs": [],
      "name": "pause",
      "outputs": [],
      "stateMutability": "nonpayable",
      "type": "function"
    },
    {
      "inputs": [],
      "name": "unpause",
      "outputs": [],
      "stateMutability": "nonpayable",
      "type": "function"
    },
    {
      "inputs": [],
      "name": "withdrawFunds",
      "outputs": [],
      "stateMutability": "nonpayable",
      "type": "function"
    }
  ],
  "bytecode": "0x608060405234801561001057600080fd5b50600160008190555061003561002a61005d60201b60201c565b61006560201b60201c565b6000600160146101000a81548160ff021916908315150217905550600060038190555061012b565b600033905090565b6000600160009054906101000a900473ffffffffffffffffffffffffffffffffffffffff16905081600160006101000a81548173ffffffffffffffffffffffffffffffffffffffff021916908373ffffffffffffffffffffffffffffffffffffffff1602179055508173ffffffffffffffffffffffffffffffffffffffff168173ffffffffffffffffffffffffffffffffffffffff167f8be0079c531659141344cd1fd0a4f28419497f9722a3daafe3b4186f6b6457e060405160405180910390a35050565b612383806200013b6000396000f3fe6080604052600436106101235760003560e01c80635c975abb116100a05780639b70e2fb116100645780639b70e2fb1461035f578063d3e894831461038a578063db669965146103d2578063de54d429146103fd578063f2fde38b146104285761012a565b80635c975abb146102b25780636aa14a96146102dd578063715018a6146103065780638456cb591461031d5780638da5cb5b146103345761012a565b80632b07fce3116100e75780632b07fce3146101e357806335446def1461022b5780633b68af79146102545780633f4ba83a1461027f5780634364b26e146102965761012a565b806304bd12bb1461012f57806304cd70d61461014b5780630d521e8a146101765780631cb27ba4146101a157806324600fc3146101cc5761012a565b3661012a57005b600080fd5b61014960048036038101906101449190611806565b610451565b005b34801561015757600080fd5b5061016061077f565b60405161016d9190611842565b60405180910390f35b34801561018257600080fd5b5061018b610787565b6040516101989190611842565b60405180910390f35b3480156101ad57600080fd5b506101b661078e565b6040516101c39190611842565b60405180910390f35b3480156101d857600080fd5b506101e1610794565b005b3480156101ef57600080fd5b5061020a60048036038101906102059190611806565b61089b565b6040516102229c9b9a999897969594939291906118b9565b60405180910390f35b34801561023757600080fd5b50610252600480360381019061024d919061199f565b610996565b005b34801561026057600080fd5b50610269610b9e565b6040516102769190611842565b60405180910390f35b34801561028b57600080fd5b50610294610ba6565b005b6102b060048036038101906102ab9190611806565b610bb8565b005b3480156102be57600080fd5b506102c7610d76565b6040516102d491906119df565b60405180910390f35b3480156102e957600080fd5b5061030460048036038101906102ff9190611806565b610d8d565b005b34801561031257600080fd5b5061031b610f8d565b005b34801561032957600080fd5b50610332610fa1565b005b34801561034057600080fd5b50610349610fb3565b60405161035691906119fa565b60405180910390f35b34801561036b57600080fd5b50610374610fdd565b6040516103819190611842565b60405180910390f35b34801561039657600080fd5b506103b160048036038101906103ac9190611806565b610fe5565b6040516103c99c9b9a999897969594939291906118b9565b60405180910390f35b3480156103de57600080fd5b506103e76110b3565b6040516103f49190611842565b60405180910390f35b34801561040957600080fd5b506104126110bb565b60405161041f9190611842565b60405180910390f35b34801561043457600080fd5b5061044f600480360381019061044a9190611a41565b6110c1565b005b610459611145565b6105db34101561049e576040517f08c379a000000000000000000000000000000000000000000000000000000000815260040161049590611acb565b60405180910390fd5b6216e3608110156104e4576040517f08c379a00000000000000000000000000000000000000000000000000000000081526004016104db90611b37565b60405180910390fd5b6000600360008154809291906104f990611b86565b9190505590506040518061018001604052803373ffffffffffffffffffffffffffffffffffffffff1681526020018381526020016105db815260200142815260200163259806004261054b9190611bcf565b8152602001600115158152602001600015158152602001428152602001600015158152602001600015158152602001600015158152602001600015158152506002600083815260200190815260200160002060008201518160000160006101000a81548173ffffffffffffffffffffffffffffffffffffffff021916908373ffffffffffffffffffffffffffffffffffffffff1602179055506020820151816001015560408201518160020155606082015181600301556080820151816004015560a08201518160050160006101000a81548160ff02191690831515021790555060c08201518160050160016101000a81548160ff02191690831515021790555060e082015181600601556101008201518160070160006101000a81548160ff0219169083151502179055506101208201518160070160016101000a81548160ff0219169083151502179055506101408201518160070160026101000a81548160ff0219169083151502179055506101608201518160070160036101000a81548160ff0219169083151502179055509050503373ffffffffffffffffffffffffffffffffffffffff16817f601882301d3e3fce7fe3a99d4bb17ef5b6699b417bdd29f2bfb82e19fcbcb660846040516107249190611842565b60405180910390a33373ffffffffffffffffffffffffffffffffffffffff16817ffbf1458fbbddabb878de144276216e8ccda619cbac2d598e6ee37ff72173afb1346040516107739190611842565b60405180910390a35050565b630966018081565b62278d0081565b6105db81565b61079c61118f565b6000479050600081116107e4576040517f08c379a00000000000000000000000000000000000000000000000000000000081526004016107db90611c71565b60405180910390fd5b60006107ee610fb3565b73ffffffffffffffffffffffffffffffffffffffff168260405161081190611cc2565b60006040518083038185875af1925050503d806000811461084e576040519150601f19603f3d011682016040523d82523d6000602084013e610853565b606091505b5050905080610897576040517f08c379a000000000000000000000000000000000000000000000000000000000815260040161088e90611d23565b60405180910390fd5b5050565b6000806000806000806000806000806000806000600260008f815260200190815260200160002090508060000160009054906101000a900473ffffffffffffffffffffffffffffffffffffffff1681600101548260020154836003015484600401548560050160009054906101000a900460ff168660050160019054906101000a900460ff1687600601548860070160009054906101000a900460ff168960070160019054906101000a900460ff168a60070160029054906101000a900460ff168b60070160039054906101000a900460ff169c509c509c509c509c509c509c509c509c509c509c509c505091939597999b5091939597999b565b61099e61118f565b6109a6611145565b60006002600084815260200190815260200160002090508060050160019054906101000a900460ff16610a0e576040517f08c379a0000000000000000000000000000000000000000000000000000000008152600401610a0590611d8f565b60405180910390fd5b8115610b31578060010154471015610a5b576040517f08c379a0000000000000000000000000000000000000000000000000000000008152600401610a5290611dfb565b60405180910390fd5b60008160000160009054906101000a900473ffffffffffffffffffffffffffffffffffffffff1673ffffffffffffffffffffffffffffffffffffffff168260010154604051610aa990611cc2565b60006040518083038185875af1925050503d8060008114610ae6576040519150601f19603f3d011682016040523d82523d6000602084013e610aeb565b606091505b5050905080610b2f576040517f08c379a0000000000000000000000000000000000000000000000000000000008152600401610b2690611d23565b60405180910390fd5b505b60008160050160006101000a81548160ff021916908315150217905550827fbb92f6f5b9e3996f250b4077e113320be5e290fb3a17e3893c2e56d881d2122b8384610b7d576000610b83565b83600101545b604051610b91929190611e1b565b60405180910390a2505050565b6312cc030081565b610bae61118f565b610bb661120d565b565b610bc0611145565b610bc8611270565b60006002600083815260200190815260200160002090503373ffffffffffffffffffffffffffffffffffffffff168160000160009054906101000a900473ffffffffffffffffffffffffffffffffffffffff1673ffffffffffffffffffffffffffffffffffffffff1614610c71576040517f08c379a0000000000000000000000000000000000000000000000000000000008152600401610c6890611e90565b60405180910390fd5b8060050160009054906101000a900460ff16610cc2576040517f08c379a0000000000000000000000000000000000000000000000000000000008152600401610cb990611efc565b60405180910390fd5b8060020154341015610d09576040517f08c379a0000000000000000000000000000000000000000000000000000000008152600401610d0090611acb565b60405180910390fd5b4281600601819055503373ffffffffffffffffffffffffffffffffffffffff16827ffbf1458fbbddabb878de144276216e8ccda619cbac2d598e6ee37ff72173afb134604051610d599190611842565b60405180910390a3610d6a826112c0565b50610d736114dd565b50565b6000600160149054906101000a900460ff16905090565b610d95611145565b60006002600083815260200190815260200160002090503373ffffffffffffffffffffffffffffffffffffffff168160000160009054906101000a900473ffffffffffffffffffffffffffffffffffffffff1673ffffffffffffffffffffffffffffffffffffffff1614610e3e576040517f08c379a0000000000000000000000000000000000000000000000000000000008152600401610e3590611e90565b60405180910390fd5b8060050160009054906101000a900460ff16610e8f576040517f08c379a0000000000000000000000000000000000000000000000000000000008152600401610e8690611efc565b60405180910390fd5b8060050160019054906101000a900460ff1615610ee1576040517f08c379a0000000000000000000000000000000000000000000000000000000008152600401610ed890611f68565b60405180910390fd5b8060040154421115610f28576040517f08c379a0000000000000000000000000000000000000000000000000000000008152600401610f1f90611fd4565b60405180910390fd5b60018160050160016101000a81548160ff0219169083151502179055503373ffffffffffffffffffffffffffffffffffffffff16827f4dfa1d399fc3d748dfe023239c274bdaa380853d97eec367121715b4659d7fdb60405160405180910390a35050565b610f9561118f565b610f9f60006114e7565b565b610fa961118f565b610fb16115ad565b565b6000600160009054906101000a900473ffffffffffffffffffffffffffffffffffffffff16905090565b632598060081565b60026020528060005260406000206000915090508060000160009054906101000a900473ffffffffffffffffffffffffffffffffffffffff16908060010154908060020154908060030154908060040154908060050160009054906101000a900460ff16908060050160019054906101000a900460ff16908060060154908060070160009054906101000a900460ff16908060070160019054906101000a900460ff16908060070160029054906101000a900460ff16908060070160039054906101000a900460ff1690508c565b631c32048081565b60035481565b6110c961118f565b600073ffffffffffffffffffffffffffffffffffffffff168173ffffffffffffffffffffffffffffffffffffffff161415611139576040517f08c379a000000000000000000000000000000000000000000000000000000000815260040161113090612066565b60405180910390fd5b611142816114e7565b50565b61114d610d76565b1561118d576040517f08c379a0000000000000000000000000000000000000000000000000000000008152600401611184906120d2565b60405180910390fd5b565b61119761160f565b73ffffffffffffffffffffffffffffffffffffffff166111b5610fb3565b73ffffffffffffffffffffffffffffffffffffffff161461120b576040517f08c379a00000000000000000000000000000000000000000000000000000000081526004016112029061213e565b60405180910390fd5b565b611215611617565b6000600160146101000a81548160ff0219169083151502179055507f5db9ee0a495bf2e6ff9c91a7834c1ba4fdd244a5e8aa4e537bd38aeae4b073aa61125961160f565b60405161126691906119fa565b60405180910390a1565b600260005414156112b6576040517f08c379a00000000000000000000000000000000000000000000000000000000081526004016112ad906121aa565b60405180910390fd5b6002600081905550565b600060026000838152602001908152602001600020905060008160030154426112e991906121ca565b90508160070160009054906101000a900460ff1615801561130e575063096601808110155b1561135f5760006064600f846001015461132891906121fe565b6113329190612287565b905061134084826005611660565b60018360070160006101000a81548160ff021916908315150217905550505b8160070160019054906101000a900460ff1615801561138257506312cc03008110155b156113d35760006064600f846001015461139c91906121fe565b6113a69190612287565b90506113b48482600a611660565b60018360070160016101000a81548160ff021916908315150217905550505b8160070160029054906101000a900460ff161580156113f65750631c3204808110155b156114475760006064600f846001015461141091906121fe565b61141a9190612287565b90506114288482600f611660565b60018360070160026101000a81548160ff021916908315150217905550505b8160070160039054906101000a900460ff1615801561146a575063259806008110155b156114d857600060646037846001015461148491906121fe565b61148e9190612287565b905061149c84826014611660565b60018360070160036101000a81548160ff02191690831515021790555060008360050160006101000a81548160ff021916908315150217905550505b505050565b6001600081905550565b6000600160009054906101000a900473ffffffffffffffffffffffffffffffffffffffff16905081600160006101000a81548173ffffffffffffffffffffffffffffffffffffffff021916908373ffffffffffffffffffffffffffffffffffffffff1602179055508173ffffffffffffffffffffffffffffffffffffffff168173ffffffffffffffffffffffffffffffffffffffff167f8be0079c531659141344cd1fd0a4f28419497f9722a3daafe3b4186f6b6457e060405160405180910390a35050565b6115b5611145565b60018060146101000a81548160ff0219169083151502179055507f62e78cea01bee320cd4e420270b5ea74000d11b0c9f74754ebdbfc544b05a2586115f861160f565b60405161160591906119fa565b60405180910390a1565b600033905090565b61161f610d76565b61165e576040517f08c379a000000000000000000000000000000000000000000000000000000000815260040161165590612304565b60405180910390fd5b565b814710156116a3576040517f08c379a000000000000000000000000000000000000000000000000000000000815260040161169a90611dfb565b60405180910390fd5b600060026000858152602001908152602001600020905060008160000160009054906101000a900473ffffffffffffffffffffffffffffffffffffffff1673ffffffffffffffffffffffffffffffffffffffff168460405161170490611cc2565b60006040518083038185875af1925050503d8060008114611741576040519150601f19603f3d011682016040523d82523d6000602084013e611746565b606091505b505090508061178a576040517f08c379a000000000000000000000000000000000000000000000000000000000815260040161178190611d23565b60405180910390fd5b847f5ff0f8de1c3894b5a7addfc1eccd7b0b848658182a6ff29e75661660a85b132c84866040516117bc929190612324565b60405180910390a25050505050565b600080fd5b6000819050919050565b6117e3816117d0565b81146117ee57600080fd5b50565b600081359050611800816117da565b92915050565b60006020828403121561181c5761181b6117cb565b5b600061182a848285016117f1565b91505092915050565b61183c816117d0565b82525050565b60006020820190506118576000830184611833565b92915050565b600073ffffffffffffffffffffffffffffffffffffffff82169050919050565b60006118888261185d565b9050919050565b6118988161187d565b82525050565b60008115159050919050565b6118b38161189e565b82525050565b6000610180820190506118cf600083018f61188f565b6118dc602083018e611833565b6118e9604083018d611833565b6118f6606083018c611833565b611903608083018b611833565b61191060a083018a6118aa565b61191d60c08301896118aa565b61192a60e0830188611833565b6119386101008301876118aa565b6119466101208301866118aa565b6119546101408301856118aa565b6119626101608301846118aa565b9d9c50505050505050505050505050565b61197c8161189e565b811461198757600080fd5b50565b60008135905061199981611973565b92915050565b600080604083850312156119b6576119b56117cb565b5b60006119c4858286016117f1565b92505060206119d58582860161198a565b9150509250929050565b60006020820190506119f460008301846118aa565b92915050565b6000602082019050611a0f600083018461188f565b92915050565b611a1e8161187d565b8114611a2957600080fd5b50565b600081359050611a3b81611a15565b92915050565b600060208284031215611a5757611a566117cb565b5b6000611a6584828501611a2c565b91505092915050565b600082825260208201905092915050565b7f496e73756666696369656e74207072656d69756d207061796d656e7400000000600082015250565b6000611ab5601c83611a6e565b9150611ac082611a7f565b602082019050919050565b60006020820190508181036000830152611ae481611aa8565b9050919050565b7f4d696e696d756d2073756d2061737375726564206973203135204c616b687300600082015250565b6000611b21601f83611a6e565b9150611b2c82611aeb565b602082019050919050565b60006020820190508181036000830152611b5081611b14565b9050919050565b7f4e487b7100000000000000000000000000000000000000000000000000000000600052601160045260246000fd5b6000611b91826117d0565b91507fffffffffffffffffffffffffffffffffffffffffffffffffffffffffffffffff821415611bc457611bc3611b57565b5b600182019050919050565b6000611bda826117d0565b9150611be5836117d0565b9250827fffffffffffffffffffffffffffffffffffffffffffffffffffffffffffffffff03821115611c1a57611c19611b57565b5b828201905092915050565b7f4e6f2066756e647320746f207769746864726177000000000000000000000000600082015250565b6000611c5b601483611a6e565b9150611c6682611c25565b602082019050919050565b60006020820190508181036000830152611c8a81611c4e565b9050919050565b600081905092915050565b50565b6000611cac600083611c91565b9150611cb782611c9c565b600082019050919050565b6000611ccd82611c9f565b9150819050919050565b7f5472616e73666572206661696c65640000000000000000000000000000000000600082015250565b6000611d0d600f83611a6e565b9150611d1882611cd7565b602082019050919050565b60006020820190508181036000830152611d3c81611d00565b9050919050565b7f4e6f20636c61696d207375626d69747465640000000000000000000000000000600082015250565b6000611d79601283611a6e565b9150611d8482611d43565b602082019050919050565b60006020820190508181036000830152611da881611d6c565b9050919050565b7f496e73756666696369656e7420636f6e74726163742062616c616e6365000000600082015250565b6000611de5601d83611a6e565b9150611df082611daf565b602082019050919050565b60006020820190508181036000830152611e1481611dd8565b9050919050565b6000604082019050611e3060008301856118aa565b611e3d6020830184611833565b9392505050565b7f4e6f7420706f6c696379686f6c64657200000000000000000000000000000000600082015250565b6000611e7a601083611a6e565b9150611e8582611e44565b602082019050919050565b60006020820190508181036000830152611ea981611e6d565b9050919050565b7f506f6c696379206e6f7420616374697665000000000000000000000000000000600082015250565b6000611ee6601183611a6e565b9150611ef182611eb0565b602082019050919050565b60006020820190508181036000830152611f1581611ed9565b9050919050565b7f436c61696d20616c72656164792070726f636573736564000000000000000000600082015250565b6000611f52601783611a6e565b9150611f5d82611f1c565b602082019050919050565b60006020820190508181036000830152611f8181611f45565b9050919050565b7f506f6c6963792065787069726564000000000000000000000000000000000000600082015250565b6000611fbe600e83611a6e565b9150611fc982611f88565b602082019050919050565b60006020820190508181036000830152611fed81611fb1565b9050919050565b7f4f776e61626c653a206e6577206f776e657220697320746865207a65726f206160008201527f6464726573730000000000000000000000000000000000000000000000000000602082015250565b6000612050602683611a6e565b915061205b82611ff4565b604082019050919050565b6000602082019050818103600083015261207f81612043565b9050919050565b7f5061757361626c653a2070617573656400000000000000000000000000000000600082015250565b60006120bc601083611a6e565b91506120c782612086565b602082019050919050565b600060208201905081810360008301526120eb816120af565b9050919050565b7f4f776e61626c653a2063616c6c6572206973206e6f7420746865206f776e6572600082015250565b6000612128602083611a6e565b9150612133826120f2565b602082019050919050565b600060208201905081810360008301526121578161211b565b9050919050565b7f5265656e7472616e637947756172643a207265656e7472616e742063616c6c00600082015250565b6000612194601f83611a6e565b915061219f8261215e565b602082019050919050565b600060208201905081810360008301526121c381612187565b9050919050565b60006121d5826117d0565b91506121e0836117d0565b9250828210156121f3576121f2611b57565b5b828203905092915050565b6000612209826117d0565b9150612214836117d0565b9250817fffffffffffffffffffffffffffffffffffffffffffffffffffffffffffffffff048311821515161561224d5761224c611b57565b5b828202905092915050565b7f4e487b7100000000000000000000000000000000000000000000000000000000600052601260045260246000fd5b6000612292826117d0565b915061229d836117d0565b9250826122ad576122ac612258565b5b828204905092915050565b7f5061757361626c653a206e6f7420706175736564000000000000000000000000600082015250565b60006122ee601483611a6e565b91506122f9826122b8565b602082019050919050565b6000602082019050818103600083015261231d816122e1565b9050919050565b60006040820190506123396000830185611833565b6123466020830184611833565b939250505056fea26469706673582212200348df32366b66a4f949b42a398a9a6695322057bb39807c400ec9f0c2b904ab64736f6c63430008090033",
  "immutableReferences": {},
  "source": "// SPDX-License-Identifier: MIT\r\npragma solidity ^0.8.9;\r\n\r\nimport \"@openzeppelin/contracts/security/ReentrancyGuard.sol\";\r\nimport \"@openzeppelin/contracts/access/Ownable.sol\";\r\nimport \"@openzeppelin/contracts/security/Pausable.sol\";\r\n\r\ncontract MoneyBackInsurance is ReentrancyGuard, Ownable, Pausable {\r\n    struct Policy {\r\n        address policyholder;\r\n        uint256 sumAssured;\r\n        uint256 premium;\r\n        uint256 startDate;\r\n        uint256 endDate;\r\n        bool isActive;\r\n        bool isClaimed;\r\n        uint256 lastPremiumPaid;\r\n        bool payout5thYear;\r\n        bool payout10thYear;\r\n        bool payout15thYear;\r\n        bool maturityPaid;\r\n    }\r\n\r\n    // Mapping from policy ID to Policy struct\r\n    mapping(uint256 => Policy) public policies;\r\n    uint256 public policyCount;\r\n    \r\n    // Events\r\n    event PremiumPaid(uint256 indexed policyId, address indexed policyholder, uint256 amount);\r\n    event PolicyCreated(uint256 indexed policyId, address indexed policyholder, uint256 sumAssured);\r\n    event PayoutProcessed(uint256 indexed policyId, uint256 year, uint256 amount);\r\n    event ClaimSubmitted(uint256 indexed policyId, address indexed policyholder);\r\n    event ClaimProcessed(uint256 indexed policyId, bool approved, uint256 amount);\r\n    \r\n    // Constants\r\n    uint256 public constant PREMIUM_RATE = 1499; // 1,499 per month\r\n    uint256 public constant POLICY_DURATION = 20 * 365 days; // 20 years\r\n    uint256 public constant PAYOUT_5TH_YEAR = 5 * 365 days;\r\n    uint256 public constant PAYOUT_10TH_YEAR = 10 * 365 days;\r\n    uint256 public constant PAYOUT_15TH_YEAR = 15 * 365 days;\r\n    uint256 public constant CLAIM_VERIFICATION_PERIOD = 30 days;\r\n    \r\n    constructor() {\r\n        policyCount = 0;\r\n    }\r\n    \r\n    // Create new policy\r\n    function createPolicy(uint256 _sumAssured) external payable whenNotPaused {\r\n        require(msg.value >= PREMIUM_RATE, \"Insufficient premium payment\");\r\n        require(_sumAssured >= 1500000, \"Minimum sum assured is 15 Lakhs\");\r\n        \r\n        uint256 policyId = policyCount++;\r\n        \r\n        policies[policyId] = Policy({\r\n            policyholder: msg.sender,\r\n            sumAssured: _sumAssured,\r\n            premium: PREMIUM_RATE,\r\n            startDate: block.timestamp,\r\n            endDate: block.timestamp + POLICY_DURATION,\r\n            isActive: true,\r\n            isClaimed: false,\r\n            lastPremiumPaid: block.timestamp,\r\n            payout5thYear: false,\r\n            payout10thYear: false,\r\n            payout15thYear: false,\r\n            maturityPaid: false\r\n        });\r\n        \r\n        emit PolicyCreated(policyId, msg.sender, _sumAssured);\r\n        emit PremiumPaid(policyId, msg.sender, msg.value);\r\n    }\r\n    \r\n    // Pay premium\r\n    function payPremium(uint256 _policyId) external payable whenNotPaused nonReentrant {\r\n        Policy storage policy = policies[_policyId];\r\n        require(policy.policyholder == msg.sender, \"Not policyholder\");\r\n        require(policy.isActive, \"Policy not active\");\r\n        require(msg.value >= policy.premium, \"Insufficient premium payment\");\r\n        \r\n        policy.lastPremiumPaid = block.timestamp;\r\n        emit PremiumPaid(_policyId, msg.sender, msg.value);\r\n        \r\n        // Check and process payouts\r\n        checkAndProcessPayouts(_policyId);\r\n    }\r\n    \r\n    // Check and process payouts\r\n    function checkAndProcessPayouts(uint256 _policyId) internal {\r\n        Policy storage policy = policies[_policyId];\r\n        uint256 timeElapsed = block.timestamp - policy.startDate;\r\n        \r\n        // 5th year payout (15%)\r\n        if (!policy.payout5thYear && timeElapsed >= PAYOUT_5TH_YEAR) {\r\n            uint256 payoutAmount = (policy.sumAssured * 15) / 100;\r\n            processPayout(_policyId, payoutAmount, 5);\r\n            policy.payout5thYear = true;\r\n        }\r\n        \r\n        // 10th year payout (15%)\r\n        if (!policy.payout10thYear && timeElapsed >= PAYOUT_10TH_YEAR) {\r\n            uint256 payoutAmount = (policy.sumAssured * 15) / 100;\r\n            processPayout(_policyId, payoutAmount, 10);\r\n            policy.payout10thYear = true;\r\n        }\r\n        \r\n        // 15th year payout (15%)\r\n        if (!policy.payout15thYear && timeElapsed >= PAYOUT_15TH_YEAR) {\r\n            uint256 payoutAmount = (policy.sumAssured * 15) / 100;\r\n            processPayout(_policyId, payoutAmount, 15);\r\n            policy.payout15thYear = true;\r\n        }\r\n        \r\n        // Maturity payout (55%)\r\n        if (!policy.maturityPaid && timeElapsed >= POLICY_DURATION) {\r\n            uint256 payoutAmount = (policy.sumAssured * 55) / 100;\r\n            processPayout(_policyId, payoutAmount, 20);\r\n            policy.maturityPaid = true;\r\n            policy.isActive = false;\r\n        }\r\n    }\r\n    \r\n    // Process payout\r\n    function processPayout(uint256 _policyId, uint256 _amount, uint256 _year) internal {\r\n        require(address(this).balance >= _amount, \"Insufficient contract balance\");\r\n        Policy storage policy = policies[_policyId];\r\n        \r\n        (bool success, ) = policy.policyholder.call{value: _amount}(\"\");\r\n        require(success, \"Transfer failed\");\r\n        \r\n        emit PayoutProcessed(_policyId, _year, _amount);\r\n    }\r\n    \r\n    // Submit claim\r\n    function submitClaim(uint256 _policyId) external whenNotPaused {\r\n        Policy storage policy = policies[_policyId];\r\n        require(policy.policyholder == msg.sender, \"Not policyholder\");\r\n        require(policy.isActive, \"Policy not active\");\r\n        require(!policy.isClaimed, \"Claim already processed\");\r\n        require(block.timestamp <= policy.endDate, \"Policy expired\");\r\n        \r\n        policy.isClaimed = true;\r\n        emit ClaimSubmitted(_policyId, msg.sender);\r\n    }\r\n    \r\n    // Process claim (only owner)\r\n    function processClaim(uint256 _policyId, bool _approved) external onlyOwner whenNotPaused {\r\n        Policy storage policy = policies[_policyId];\r\n        require(policy.isClaimed, \"No claim submitted\");\r\n        \r\n        if (_approved) {\r\n            require(address(this).balance >= policy.sumAssured, \"Insufficient contract balance\");\r\n            (bool success, ) = policy.policyholder.call{value: policy.sumAssured}(\"\");\r\n            require(success, \"Transfer failed\");\r\n        }\r\n        \r\n        policy.isActive = false;\r\n        emit ClaimProcessed(_policyId, _approved, _approved ? policy.sumAssured : 0);\r\n    }\r\n    \r\n    // Get policy details\r\n    function getPolicy(uint256 _policyId) external view returns (\r\n        address policyholder,\r\n        uint256 sumAssured,\r\n        uint256 premium,\r\n        uint256 startDate,\r\n        uint256 endDate,\r\n        bool isActive,\r\n        bool isClaimed,\r\n        uint256 lastPremiumPaid,\r\n        bool payout5thYear,\r\n        bool payout10thYear,\r\n        bool payout15thYear,\r\n        bool maturityPaid\r\n    ) {\r\n        Policy storage policy = policies[_policyId];\r\n        return (\r\n            policy.policyholder,\r\n            policy.sumAssured,\r\n            policy.premium,\r\n            policy.startDate,\r\n            policy.endDate,\r\n            policy.isActive,\r\n            policy.isClaimed,\r\n            policy.lastPremiumPaid,\r\n            policy.payout5thYear,\r\n            policy.payout10thYear,\r\n            policy.payout15thYear,\r\n            policy.maturityPaid\r\n        );\r\n    }\r\n    \r\n    // Pause contract in emergency\r\n    function pause() external onlyOwner {\r\n        _pause();\r\n    }\r\n    \r\n    // Unpause contract\r\n    function unpause() external onlyOwner {\r\n        _unpause();\r\n    }\r\n    \r\n    // Withdraw funds (only owner)\r\n    function withdrawFunds() external onlyOwner {\r\n        uint256 balance = address(this).balance;\r\n        require(balance > 0, \"No funds to withdraw\");\r\n        (bool success, ) = owner().call{value: balance}(\"\");\r\n        require(success, \"Transfer failed\");\r\n    }\r\n    \r\n    // Receive function to accept ETH\r\n    receive() external payable {}\r\n} ",
  "sourcePath": "D:\\b\\insuredge (2)\\insuredge\\contracts\\MoneyBackInsurance.sol",
  "compiler": {
    "name": "solc",
    "version": "0.8.9+commit.e5eed63a.Emscripten.clang"
  },
  "schemaVersion": "3.4.16",
  "updatedAt": "2025-03-29T13:24:37.187Z",
  "devdoc": {
    "kind": "dev",
    "methods": {
      "owner()": {
        "details": "Returns the address of the current owner."
      },
      "paused()": {
        "details": "Returns true if the contract is paused, and false otherwise."
      },
      "renounceOwnership()": {
        "details": "Leaves the contract without owner. It will not be possible to call `onlyOwner` functions. Can only be called by the current owner. NOTE: Renouncing ownership will leave the contract without an owner, thereby disabling any functionality that is only available to the owner."
      },
      "transferOwnership(address)": {
        "details": "Transfers ownership of the contract to a new account (`newOwner`). Can only be called by the current owner."
      }
    },
    "version": 1
  },
  "userdoc": {
    "kind": "user",
    "methods": {},
    "version": 1
  }
}