{
  "contractName": "TermLifeInsurance",
  "abi": [
    {
      "inputs": [],
      "stateMutability": "nonpayable",
      "type": "constructor"
    },
    {
      "anonymous": false,
      "inputs": [
        {
          "indexed": true,
          "internalType": "uint256",
          "name": "policyId",
          "type": "uint256"
        },
        {
          "indexed": false,
          "internalType": "bool",
          "name": "approved",
          "type": "bool"
        },
        {
          "indexed": false,
          "internalType": "uint256",
          "name": "amount",
          "type": "uint256"
        }
      ],
      "name": "ClaimProcessed",
      "type": "event"
    },
    {
      "anonymous": false,
      "inputs": [
        {
          "indexed": true,
          "internalType": "uint256",
          "name": "policyId",
          "type": "uint256"
        },
        {
          "indexed": true,
          "internalType": "address",
          "name": "policyholder",
          "type": "address"
        }
      ],
      "name": "ClaimSubmitted",
      "type": "event"
    },
    {
      "anonymous": false,
      "inputs": [
        {
          "indexed": true,
          "internalType": "address",
          "name": "previousOwner",
          "type": "address"
        },
        {
          "indexed": true,
          "internalType": "address",
          "name": "newOwner",
          "type": "address"
        }
      ],
      "name": "OwnershipTransferred",
      "type": "event"
    },
    {
      "anonymous": false,
      "inputs": [
        {
          "indexed": false,
          "internalType": "address",
          "name": "account",
          "type": "address"
        }
      ],
      "name": "Paused",
      "type": "event"
    },
    {
      "anonymous": false,
      "inputs": [
        {
          "indexed": true,
          "internalType": "uint256",
          "name": "policyId",
          "type": "uint256"
        },
        {
          "indexed": true,
          "internalType": "address",
          "name": "policyholder",
          "type": "address"
        },
        {
          "indexed": false,
          "internalType": "uint256",
          "name": "sumAssured",
          "type": "uint256"
        }
      ],
      "name": "PolicyCreated",
      "type": "event"
    },
    {
      "anonymous": false,
      "inputs": [
        {
          "indexed": true,
          "internalType": "uint256",
          "name": "policyId",
          "type": "uint256"
        },
        {
          "indexed": false,
          "internalType": "uint256",
          "name": "newEndDate",
          "type": "uint256"
        }
      ],
      "name": "PolicyRenewed",
      "type": "event"
    },
    {
      "anonymous": false,
      "inputs": [
        {
          "indexed": true,
          "internalType": "uint256",
          "name": "policyId",
          "type": "uint256"
        },
        {
          "indexed": true,
          "internalType": "address",
          "name": "policyholder",
          "type": "address"
        },
        {
          "indexed": false,
          "internalType": "uint256",
          "name": "amount",
          "type": "uint256"
        }
      ],
      "name": "PremiumPaid",
      "type": "event"
    },
    {
      "anonymous": false,
      "inputs": [
        {
          "indexed": false,
          "internalType": "address",
          "name": "account",
          "type": "address"
        }
      ],
      "name": "Unpaused",
      "type": "event"
    },
    {
      "inputs": [],
      "name": "CLAIM_VERIFICATION_PERIOD",
      "outputs": [
        {
          "internalType": "uint256",
          "name": "",
          "type": "uint256"
        }
      ],
      "stateMutability": "view",
      "type": "function"
    },
    {
      "inputs": [],
      "name": "POLICY_DURATION",
      "outputs": [
        {
          "internalType": "uint256",
          "name": "",
          "type": "uint256"
        }
      ],
      "stateMutability": "view",
      "type": "function"
    },
    {
      "inputs": [],
      "name": "PREMIUM_RATE",
      "outputs": [
        {
          "internalType": "uint256",
          "name": "",
          "type": "uint256"
        }
      ],
      "stateMutability": "view",
      "type": "function"
    },
    {
      "inputs": [],
      "name": "owner",
      "outputs": [
        {
          "internalType": "address",
          "name": "",
          "type": "address"
        }
      ],
      "stateMutability": "view",
      "type": "function"
    },
    {
      "inputs": [],
      "name": "paused",
      "outputs": [
        {
          "internalType": "bool",
          "name": "",
          "type": "bool"
        }
      ],
      "stateMutability": "view",
      "type": "function"
    },
    {
      "inputs": [
        {
          "internalType": "uint256",
          "name": "",
          "type": "uint256"
        }
      ],
      "name": "policies",
      "outputs": [
        {
          "internalType": "address",
          "name": "policyholder",
          "type": "address"
        },
        {
          "internalType": "uint256",
          "name": "sumAssured",
          "type": "uint256"
        },
        {
          "internalType": "uint256",
          "name": "premium",
          "type": "uint256"
        },
        {
          "internalType": "uint256",
          "name": "startDate",
          "type": "uint256"
        },
        {
          "internalType": "uint256",
          "name": "endDate",
          "type": "uint256"
        },
        {
          "internalType": "bool",
          "name": "isActive",
          "type": "bool"
        },
        {
          "internalType": "bool",
          "name": "isClaimed",
          "type": "bool"
        },
        {
          "internalType": "uint256",
          "name": "lastPremiumPaid",
          "type": "uint256"
        }
      ],
      "stateMutability": "view",
      "type": "function"
    },
    {
      "inputs": [],
      "name": "policyCount",
      "outputs": [
        {
          "internalType": "uint256",
          "name": "",
          "type": "uint256"
        }
      ],
      "stateMutability": "view",
      "type": "function"
    },
    {
      "inputs": [],
      "name": "renounceOwnership",
      "outputs": [],
      "stateMutability": "nonpayable",
      "type": "function"
    },
    {
      "inputs": [
        {
          "internalType": "address",
          "name": "newOwner",
          "type": "address"
        }
      ],
      "name": "transferOwnership",
      "outputs": [],
      "stateMutability": "nonpayable",
      "type": "function"
    },
    {
      "stateMutability": "payable",
      "type": "receive"
    },
    {
      "inputs": [
        {
          "internalType": "uint256",
          "name": "_sumAssured",
          "type": "uint256"
        }
      ],
      "name": "createPolicy",
      "outputs": [],
      "stateMutability": "payable",
      "type": "function"
    },
    {
      "inputs": [
        {
          "internalType": "uint256",
          "name": "_policyId",
          "type": "uint256"
        }
      ],
      "name": "payPremium",
      "outputs": [],
      "stateMutability": "payable",
      "type": "function"
    },
    {
      "inputs": [
        {
          "internalType": "uint256",
          "name": "_policyId",
          "type": "uint256"
        }
      ],
      "name": "submitClaim",
      "outputs": [],
      "stateMutability": "nonpayable",
      "type": "function"
    },
    {
      "inputs": [
        {
          "internalType": "uint256",
          "name": "_policyId",
          "type": "uint256"
        },
        {
          "internalType": "bool",
          "name": "_approved",
          "type": "bool"
        }
      ],
      "name": "processClaim",
      "outputs": [],
      "stateMutability": "nonpayable",
      "type": "function"
    },
    {
      "inputs": [
        {
          "internalType": "uint256",
          "name": "_policyId",
          "type": "uint256"
        }
      ],
      "name": "getPolicy",
      "outputs": [
        {
          "internalType": "address",
          "name": "policyholder",
          "type": "address"
        },
        {
          "internalType": "uint256",
          "name": "sumAssured",
          "type": "uint256"
        },
        {
          "internalType": "uint256",
          "name": "premium",
          "type": "uint256"
        },
        {
          "internalType": "uint256",
          "name": "startDate",
          "type": "uint256"
        },
        {
          "internalType": "uint256",
          "name": "endDate",
          "type": "uint256"
        },
        {
          "internalType": "bool",
          "name": "isActive",
          "type": "bool"
        },
        {
          "internalType": "bool",
          "name": "isClaimed",
          "type": "bool"
        },
        {
          "internalType": "uint256",
          "name": "lastPremiumPaid",
          "type": "uint256"
        }
      ],
      "stateMutability": "view",
      "type": "function"
    },
    {
      "inputs": [],
      "name": "pause",
      "outputs": [],
      "stateMutability": "nonpayable",
      "type": "function"
    },
    {
      "inputs": [],
      "name": "unpause",
      "outputs": [],
      "stateMutability": "nonpayable",
      "type": "function"
    },
    {
      "inputs": [],
      "name": "withdrawFunds",
      "outputs": [],
      "stateMutability": "nonpayable",
      "type": "function"
    }
  ],
  "bytecode": "0x608060405234801561001057600080fd5b50600160008190555061003561002a61005d60201b60201c565b61006560201b60201c565b6000600160146101000a81548160ff021916908315150217905550600060038190555061012b565b600033905090565b6000600160009054906101000a900473ffffffffffffffffffffffffffffffffffffffff16905081600160006101000a81548173ffffffffffffffffffffffffffffffffffffffff021916908373ffffffffffffffffffffffffffffffffffffffff1602179055508173ffffffffffffffffffffffffffffffffffffffff168173ffffffffffffffffffffffffffffffffffffffff167f8be0079c531659141344cd1fd0a4f28419497f9722a3daafe3b4186f6b6457e060405160405180910390a35050565b611ce38061013a6000396000f3fe6080604052600436106101025760003560e01c80635c975abb116100955780638da5cb5b116100645780638da5cb5b146102b95780639b70e2fb146102e4578063d3e894831461030f578063de54d42914610353578063f2fde38b1461037e57610109565b80635c975abb146102375780636aa14a9614610262578063715018a61461028b5780638456cb59146102a257610109565b80632b07fce3116100d15780632b07fce31461019757806335446def146101db5780633f4ba83a146102045780634364b26e1461021b57610109565b806304bd12bb1461010e5780630d521e8a1461012a5780631cb27ba41461015557806324600fc31461018057610109565b3661010957005b600080fd5b610128600480360381019061012391906112b9565b6103a7565b005b34801561013657600080fd5b5061013f61062d565b60405161014c91906112f5565b60405180910390f35b34801561016157600080fd5b5061016a610634565b60405161017791906112f5565b60405180910390f35b34801561018c57600080fd5b5061019561063a565b005b3480156101a357600080fd5b506101be60048036038101906101b991906112b9565b610741565b6040516101d298979695949392919061136c565b60405180910390f35b3480156101e757600080fd5b5061020260048036038101906101fd9190611416565b6107e2565b005b34801561021057600080fd5b506102196109ea565b005b610235600480360381019061023091906112b9565b6109fc565b005b34801561024357600080fd5b5061024c610c05565b6040516102599190611456565b60405180910390f35b34801561026e57600080fd5b50610289600480360381019061028491906112b9565b610c1c565b005b34801561029757600080fd5b506102a0610e1c565b005b3480156102ae57600080fd5b506102b7610e30565b005b3480156102c557600080fd5b506102ce610e42565b6040516102db9190611471565b60405180910390f35b3480156102f057600080fd5b506102f9610e6c565b60405161030691906112f5565b60405180910390f35b34801561031b57600080fd5b50610336600480360381019061033191906112b9565b610e74565b60405161034a98979695949392919061136c565b60405180910390f35b34801561035f57600080fd5b50610368610ef6565b60405161037591906112f5565b60405180910390f35b34801561038a57600080fd5b506103a560048036038101906103a091906114b8565b610efc565b005b6103af610f80565b6101f33410156103f4576040517f08c379a00000000000000000000000000000000000000000000000000000000081526004016103eb90611542565b60405180910390fd5b620f424081101561043a576040517f08c379a0000000000000000000000000000000000000000000000000000000008152600401610431906115ae565b60405180910390fd5b60006003600081548092919061044f906115fd565b9190505590506040518061010001604052803373ffffffffffffffffffffffffffffffffffffffff1681526020018381526020016101f381526020014281526020016301e13380426104a19190611646565b8152602001600115158152602001600015158152602001428152506002600083815260200190815260200160002060008201518160000160006101000a81548173ffffffffffffffffffffffffffffffffffffffff021916908373ffffffffffffffffffffffffffffffffffffffff1602179055506020820151816001015560408201518160020155606082015181600301556080820151816004015560a08201518160050160006101000a81548160ff02191690831515021790555060c08201518160050160016101000a81548160ff02191690831515021790555060e082015181600601559050503373ffffffffffffffffffffffffffffffffffffffff16817f601882301d3e3fce7fe3a99d4bb17ef5b6699b417bdd29f2bfb82e19fcbcb660846040516105d291906112f5565b60405180910390a33373ffffffffffffffffffffffffffffffffffffffff16817ffbf1458fbbddabb878de144276216e8ccda619cbac2d598e6ee37ff72173afb13460405161062191906112f5565b60405180910390a35050565b62278d0081565b6101f381565b610642610fca565b60004790506000811161068a576040517f08c379a0000000000000000000000000000000000000000000000000000000008152600401610681906116e8565b60405180910390fd5b6000610694610e42565b73ffffffffffffffffffffffffffffffffffffffff16826040516106b790611739565b60006040518083038185875af1925050503d80600081146106f4576040519150601f19603f3d011682016040523d82523d6000602084013e6106f9565b606091505b505090508061073d576040517f08c379a00000000000000000000000000000000000000000000000000000000081526004016107349061179a565b60405180910390fd5b5050565b6000806000806000806000806000600260008b815260200190815260200160002090508060000160009054906101000a900473ffffffffffffffffffffffffffffffffffffffff1681600101548260020154836003015484600401548560050160009054906101000a900460ff168660050160019054906101000a900460ff1687600601549850985098509850985098509850985050919395975091939597565b6107ea610fca565b6107f2610f80565b60006002600084815260200190815260200160002090508060050160019054906101000a900460ff1661085a576040517f08c379a000000000000000000000000000000000000000000000000000000000815260040161085190611806565b60405180910390fd5b811561097d5780600101544710156108a7576040517f08c379a000000000000000000000000000000000000000000000000000000000815260040161089e90611872565b60405180910390fd5b60008160000160009054906101000a900473ffffffffffffffffffffffffffffffffffffffff1673ffffffffffffffffffffffffffffffffffffffff1682600101546040516108f590611739565b60006040518083038185875af1925050503d8060008114610932576040519150601f19603f3d011682016040523d82523d6000602084013e610937565b606091505b505090508061097b576040517f08c379a00000000000000000000000000000000000000000000000000000000081526004016109729061179a565b60405180910390fd5b505b60008160050160006101000a81548160ff021916908315150217905550827fbb92f6f5b9e3996f250b4077e113320be5e290fb3a17e3893c2e56d881d2122b83846109c95760006109cf565b83600101545b6040516109dd929190611892565b60405180910390a2505050565b6109f2610fca565b6109fa611048565b565b610a04610f80565b610a0c6110ab565b60006002600083815260200190815260200160002090503373ffffffffffffffffffffffffffffffffffffffff168160000160009054906101000a900473ffffffffffffffffffffffffffffffffffffffff1673ffffffffffffffffffffffffffffffffffffffff1614610ab5576040517f08c379a0000000000000000000000000000000000000000000000000000000008152600401610aac90611907565b60405180910390fd5b8060050160009054906101000a900460ff16610b06576040517f08c379a0000000000000000000000000000000000000000000000000000000008152600401610afd90611973565b60405180910390fd5b8060020154341015610b4d576040517f08c379a0000000000000000000000000000000000000000000000000000000008152600401610b4490611542565b60405180910390fd5b4281600601819055506301e1338042610b669190611646565b81600401819055503373ffffffffffffffffffffffffffffffffffffffff16827ffbf1458fbbddabb878de144276216e8ccda619cbac2d598e6ee37ff72173afb134604051610bb591906112f5565b60405180910390a3817f9f04165132ebf9a8d3a35546430e17eeb172110508c6b32ccfa530d2a297c7e08260040154604051610bf191906112f5565b60405180910390a250610c026110fb565b50565b6000600160149054906101000a900460ff16905090565b610c24610f80565b60006002600083815260200190815260200160002090503373ffffffffffffffffffffffffffffffffffffffff168160000160009054906101000a900473ffffffffffffffffffffffffffffffffffffffff1673ffffffffffffffffffffffffffffffffffffffff1614610ccd576040517f08c379a0000000000000000000000000000000000000000000000000000000008152600401610cc490611907565b60405180910390fd5b8060050160009054906101000a900460ff16610d1e576040517f08c379a0000000000000000000000000000000000000000000000000000000008152600401610d1590611973565b60405180910390fd5b8060050160019054906101000a900460ff1615610d70576040517f08c379a0000000000000000000000000000000000000000000000000000000008152600401610d67906119df565b60405180910390fd5b8060040154421115610db7576040517f08c379a0000000000000000000000000000000000000000000000000000000008152600401610dae90611a4b565b60405180910390fd5b60018160050160016101000a81548160ff0219169083151502179055503373ffffffffffffffffffffffffffffffffffffffff16827f4dfa1d399fc3d748dfe023239c274bdaa380853d97eec367121715b4659d7fdb60405160405180910390a35050565b610e24610fca565b610e2e6000611105565b565b610e38610fca565b610e406111cb565b565b6000600160009054906101000a900473ffffffffffffffffffffffffffffffffffffffff16905090565b6301e1338081565b60026020528060005260406000206000915090508060000160009054906101000a900473ffffffffffffffffffffffffffffffffffffffff16908060010154908060020154908060030154908060040154908060050160009054906101000a900460ff16908060050160019054906101000a900460ff16908060060154905088565b60035481565b610f04610fca565b600073ffffffffffffffffffffffffffffffffffffffff168173ffffffffffffffffffffffffffffffffffffffff161415610f74576040517f08c379a0000000000000000000000000000000000000000000000000000000008152600401610f6b90611add565b60405180910390fd5b610f7d81611105565b50565b610f88610c05565b15610fc8576040517f08c379a0000000000000000000000000000000000000000000000000000000008152600401610fbf90611b49565b60405180910390fd5b565b610fd261122d565b73ffffffffffffffffffffffffffffffffffffffff16610ff0610e42565b73ffffffffffffffffffffffffffffffffffffffff1614611046576040517f08c379a000000000000000000000000000000000000000000000000000000000815260040161103d90611bb5565b60405180910390fd5b565b611050611235565b6000600160146101000a81548160ff0219169083151502179055507f5db9ee0a495bf2e6ff9c91a7834c1ba4fdd244a5e8aa4e537bd38aeae4b073aa61109461122d565b6040516110a19190611471565b60405180910390a1565b600260005414156110f1576040517f08c379a00000000000000000000000000000000000000000000000000000000081526004016110e890611c21565b60405180910390fd5b6002600081905550565b6001600081905550565b6000600160009054906101000a900473ffffffffffffffffffffffffffffffffffffffff16905081600160006101000a81548173ffffffffffffffffffffffffffffffffffffffff021916908373ffffffffffffffffffffffffffffffffffffffff1602179055508173ffffffffffffffffffffffffffffffffffffffff168173ffffffffffffffffffffffffffffffffffffffff167f8be0079c531659141344cd1fd0a4f28419497f9722a3daafe3b4186f6b6457e060405160405180910390a35050565b6111d3610f80565b60018060146101000a81548160ff0219169083151502179055507f62e78cea01bee320cd4e420270b5ea74000d11b0c9f74754ebdbfc544b05a25861121661122d565b6040516112239190611471565b60405180910390a1565b600033905090565b61123d610c05565b61127c576040517f08c379a000000000000000000000000000000000000000000000000000000000815260040161127390611c8d565b60405180910390fd5b565b600080fd5b6000819050919050565b61129681611283565b81146112a157600080fd5b50565b6000813590506112b38161128d565b92915050565b6000602082840312156112cf576112ce61127e565b5b60006112dd848285016112a4565b91505092915050565b6112ef81611283565b82525050565b600060208201905061130a60008301846112e6565b92915050565b600073ffffffffffffffffffffffffffffffffffffffff82169050919050565b600061133b82611310565b9050919050565b61134b81611330565b82525050565b60008115159050919050565b61136681611351565b82525050565b600061010082019050611382600083018b611342565b61138f602083018a6112e6565b61139c60408301896112e6565b6113a960608301886112e6565b6113b660808301876112e6565b6113c360a083018661135d565b6113d060c083018561135d565b6113dd60e08301846112e6565b9998505050505050505050565b6113f381611351565b81146113fe57600080fd5b50565b600081359050611410816113ea565b92915050565b6000806040838503121561142d5761142c61127e565b5b600061143b858286016112a4565b925050602061144c85828601611401565b9150509250929050565b600060208201905061146b600083018461135d565b92915050565b60006020820190506114866000830184611342565b92915050565b61149581611330565b81146114a057600080fd5b50565b6000813590506114b28161148c565b92915050565b6000602082840312156114ce576114cd61127e565b5b60006114dc848285016114a3565b91505092915050565b600082825260208201905092915050565b7f496e73756666696369656e74207072656d69756d207061796d656e7400000000600082015250565b600061152c601c836114e5565b9150611537826114f6565b602082019050919050565b6000602082019050818103600083015261155b8161151f565b9050919050565b7f4d696e696d756d2073756d206173737572656420697320312043720000000000600082015250565b6000611598601b836114e5565b91506115a382611562565b602082019050919050565b600060208201905081810360008301526115c78161158b565b9050919050565b7f4e487b7100000000000000000000000000000000000000000000000000000000600052601160045260246000fd5b600061160882611283565b91507fffffffffffffffffffffffffffffffffffffffffffffffffffffffffffffffff82141561163b5761163a6115ce565b5b600182019050919050565b600061165182611283565b915061165c83611283565b9250827fffffffffffffffffffffffffffffffffffffffffffffffffffffffffffffffff03821115611691576116906115ce565b5b828201905092915050565b7f4e6f2066756e647320746f207769746864726177000000000000000000000000600082015250565b60006116d26014836114e5565b91506116dd8261169c565b602082019050919050565b60006020820190508181036000830152611701816116c5565b9050919050565b600081905092915050565b50565b6000611723600083611708565b915061172e82611713565b600082019050919050565b600061174482611716565b9150819050919050565b7f5472616e73666572206661696c65640000000000000000000000000000000000600082015250565b6000611784600f836114e5565b915061178f8261174e565b602082019050919050565b600060208201905081810360008301526117b381611777565b9050919050565b7f4e6f20636c61696d207375626d69747465640000000000000000000000000000600082015250565b60006117f06012836114e5565b91506117fb826117ba565b602082019050919050565b6000602082019050818103600083015261181f816117e3565b9050919050565b7f496e73756666696369656e7420636f6e74726163742062616c616e6365000000600082015250565b600061185c601d836114e5565b915061186782611826565b602082019050919050565b6000602082019050818103600083015261188b8161184f565b9050919050565b60006040820190506118a7600083018561135d565b6118b460208301846112e6565b9392505050565b7f4e6f7420706f6c696379686f6c64657200000000000000000000000000000000600082015250565b60006118f16010836114e5565b91506118fc826118bb565b602082019050919050565b60006020820190508181036000830152611920816118e4565b9050919050565b7f506f6c696379206e6f7420616374697665000000000000000000000000000000600082015250565b600061195d6011836114e5565b915061196882611927565b602082019050919050565b6000602082019050818103600083015261198c81611950565b9050919050565b7f436c61696d20616c72656164792070726f636573736564000000000000000000600082015250565b60006119c96017836114e5565b91506119d482611993565b602082019050919050565b600060208201905081810360008301526119f8816119bc565b9050919050565b7f506f6c6963792065787069726564000000000000000000000000000000000000600082015250565b6000611a35600e836114e5565b9150611a40826119ff565b602082019050919050565b60006020820190508181036000830152611a6481611a28565b9050919050565b7f4f776e61626c653a206e6577206f776e657220697320746865207a65726f206160008201527f6464726573730000000000000000000000000000000000000000000000000000602082015250565b6000611ac76026836114e5565b9150611ad282611a6b565b604082019050919050565b60006020820190508181036000830152611af681611aba565b9050919050565b7f5061757361626c653a2070617573656400000000000000000000000000000000600082015250565b6000611b336010836114e5565b9150611b3e82611afd565b602082019050919050565b60006020820190508181036000830152611b6281611b26565b9050919050565b7f4f776e61626c653a2063616c6c6572206973206e6f7420746865206f776e6572600082015250565b6000611b9f6020836114e5565b9150611baa82611b69565b602082019050919050565b60006020820190508181036000830152611bce81611b92565b9050919050565b7f5265656e7472616e637947756172643a207265656e7472616e742063616c6c00600082015250565b6000611c0b601f836114e5565b9150611c1682611bd5565b602082019050919050565b60006020820190508181036000830152611c3a81611bfe565b9050919050565b7f5061757361626c653a206e6f7420706175736564000000000000000000000000600082015250565b6000611c776014836114e5565b9150611c8282611c41565b602082019050919050565b60006020820190508181036000830152611ca681611c6a565b905091905056fea26469706673582212208611b88ba1a46f00cc7b9272f5eae39576276811f0495aacbaa12d1eaa4c95d064736f6c63430008090033",
  "immutableReferences": {},
  "source": "// SPDX-License-Identifier: MIT\r\npragma solidity ^0.8.0;\r\n\r\nimport \"@openzeppelin/contracts/security/ReentrancyGuard.sol\";\r\nimport \"@openzeppelin/contracts/access/Ownable.sol\";\r\nimport \"@openzeppelin/contracts/security/Pausable.sol\";\r\n\r\ncontract TermLifeInsurance is ReentrancyGuard, Ownable, Pausable {\r\n    struct Policy {\r\n        address policyholder;\r\n        uint256 sumAssured;\r\n        uint256 premium;\r\n        uint256 startDate;\r\n        uint256 endDate;\r\n        bool isActive;\r\n        bool isClaimed;\r\n        uint256 lastPremiumPaid;\r\n    }\r\n\r\n    // Mapping from policy ID to Policy struct\r\n    mapping(uint256 => Policy) public policies;\r\n    uint256 public policyCount;\r\n    \r\n    // Premium payment events\r\n    event PremiumPaid(uint256 indexed policyId, address indexed policyholder, uint256 amount);\r\n    event PolicyCreated(uint256 indexed policyId, address indexed policyholder, uint256 sumAssured);\r\n    event PolicyRenewed(uint256 indexed policyId, uint256 newEndDate);\r\n    event ClaimSubmitted(uint256 indexed policyId, address indexed policyholder);\r\n    event ClaimProcessed(uint256 indexed policyId, bool approved, uint256 amount);\r\n    \r\n    // Constants\r\n    uint256 public constant PREMIUM_RATE = 499; // 499 per month\r\n    uint256 public constant POLICY_DURATION = 365 days;\r\n    uint256 public constant CLAIM_VERIFICATION_PERIOD = 30 days;\r\n    \r\n    constructor() {\r\n        policyCount = 0;\r\n    }\r\n    \r\n    // Create new policy\r\n    function createPolicy(uint256 _sumAssured) external payable whenNotPaused {\r\n        require(msg.value >= PREMIUM_RATE, \"Insufficient premium payment\");\r\n        require(_sumAssured >= 1000000, \"Minimum sum assured is 1 Cr\");\r\n        \r\n        uint256 policyId = policyCount++;\r\n        \r\n        policies[policyId] = Policy({\r\n            policyholder: msg.sender,\r\n            sumAssured: _sumAssured,\r\n            premium: PREMIUM_RATE,\r\n            startDate: block.timestamp,\r\n            endDate: block.timestamp + POLICY_DURATION,\r\n            isActive: true,\r\n            isClaimed: false,\r\n            lastPremiumPaid: block.timestamp\r\n        });\r\n        \r\n        emit PolicyCreated(policyId, msg.sender, _sumAssured);\r\n        emit PremiumPaid(policyId, msg.sender, msg.value);\r\n    }\r\n    \r\n    // Pay premium for policy renewal\r\n    function payPremium(uint256 _policyId) external payable whenNotPaused nonReentrant {\r\n        Policy storage policy = policies[_policyId];\r\n        require(policy.policyholder == msg.sender, \"Not policyholder\");\r\n        require(policy.isActive, \"Policy not active\");\r\n        require(msg.value >= policy.premium, \"Insufficient premium payment\");\r\n        \r\n        policy.lastPremiumPaid = block.timestamp;\r\n        policy.endDate = block.timestamp + POLICY_DURATION;\r\n        \r\n        emit PremiumPaid(_policyId, msg.sender, msg.value);\r\n        emit PolicyRenewed(_policyId, policy.endDate);\r\n    }\r\n    \r\n    // Submit claim\r\n    function submitClaim(uint256 _policyId) external whenNotPaused {\r\n        Policy storage policy = policies[_policyId];\r\n        require(policy.policyholder == msg.sender, \"Not policyholder\");\r\n        require(policy.isActive, \"Policy not active\");\r\n        require(!policy.isClaimed, \"Claim already processed\");\r\n        require(block.timestamp <= policy.endDate, \"Policy expired\");\r\n        \r\n        policy.isClaimed = true;\r\n        emit ClaimSubmitted(_policyId, msg.sender);\r\n    }\r\n    \r\n    // Process claim (only owner)\r\n    function processClaim(uint256 _policyId, bool _approved) external onlyOwner whenNotPaused {\r\n        Policy storage policy = policies[_policyId];\r\n        require(policy.isClaimed, \"No claim submitted\");\r\n        \r\n        if (_approved) {\r\n            require(address(this).balance >= policy.sumAssured, \"Insufficient contract balance\");\r\n            (bool success, ) = policy.policyholder.call{value: policy.sumAssured}(\"\");\r\n            require(success, \"Transfer failed\");\r\n        }\r\n        \r\n        policy.isActive = false;\r\n        emit ClaimProcessed(_policyId, _approved, _approved ? policy.sumAssured : 0);\r\n    }\r\n    \r\n    // Get policy details\r\n    function getPolicy(uint256 _policyId) external view returns (\r\n        address policyholder,\r\n        uint256 sumAssured,\r\n        uint256 premium,\r\n        uint256 startDate,\r\n        uint256 endDate,\r\n        bool isActive,\r\n        bool isClaimed,\r\n        uint256 lastPremiumPaid\r\n    ) {\r\n        Policy storage policy = policies[_policyId];\r\n        return (\r\n            policy.policyholder,\r\n            policy.sumAssured,\r\n            policy.premium,\r\n            policy.startDate,\r\n            policy.endDate,\r\n            policy.isActive,\r\n            policy.isClaimed,\r\n            policy.lastPremiumPaid\r\n        );\r\n    }\r\n    \r\n    // Pause contract in emergency\r\n    function pause() external onlyOwner {\r\n        _pause();\r\n    }\r\n    \r\n    // Unpause contract\r\n    function unpause() external onlyOwner {\r\n        _unpause();\r\n    }\r\n    \r\n    // Withdraw funds (only owner)\r\n    function withdrawFunds() external onlyOwner {\r\n        uint256 balance = address(this).balance;\r\n        require(balance > 0, \"No funds to withdraw\");\r\n        (bool success, ) = owner().call{value: balance}(\"\");\r\n        require(success, \"Transfer failed\");\r\n    }\r\n    \r\n    // Receive function to accept ETH\r\n    receive() external payable {}\r\n} ",
  "sourcePath": "D:\\b\\insuredge (2)\\insuredge\\contracts\\TermLifeInsurance.sol",
  "compiler": {
    "name": "solc",
    "version": "0.8.9+commit.e5eed63a.Emscripten.clang"
  },
  "schemaVersion": "3.4.16",
  "updatedAt": "2025-03-29T13:24:37.198Z",
  "devdoc": {
    "kind": "dev",
    "methods": {
      "owner()": {
        "details": "Returns the address of the current owner."
      },
      "paused()": {
        "details": "Returns true if the contract is paused, and false otherwise."
      },
      "renounceOwnership()": {
        "details": "Leaves the contract without owner. It will not be possible to call `onlyOwner` functions. Can only be called by the current owner. NOTE: Renouncing ownership will leave the contract without an owner, thereby disabling any functionality that is only available to the owner."
      },
      "transferOwnership(address)": {
        "details": "Transfers ownership of the contract to a new account (`newOwner`). Can only be called by the current owner."
      }
    },
    "version": 1
  },
  "userdoc": {
    "kind": "user",
    "methods": {},
    "version": 1
  }
}